:1000000009C019C018C017C016C015C014C013C04D
:1000100012C011C011241FBECFE9CDBF10E0A0E671
:10002000B0E0E2E6F3E002C005900D92A238B1071D
:10003000D9F77FD094C1E4CF26EB33E0815020F094
:10004000F9013197F1F7FACF08952CE135E28150AB
:1000500020F0F9013197F1F7FACF089584E6F5CF52
:100060001CBA8EBB6DBBE29AE19AE199FECF08956E
:10007000CF9363FF07C0883028F460FD03C097E08A
:10008000981B892F4EBB90E19CBBE29AE19AE199C3
:10009000FECF4D3319F0C1E0C40F01C0C0E0682F9E
:1000A00060958C2FDDDF8C2FCF910895682F6095A0
:1000B0008FE3D6CF369A3699FECF85B108950F9348
:1000C0001F93CF93DF93C82FD62F142F022FCC234B
:1000D00061F019BD06BF8D2FB8DF19BC16BE8D2F7C
:1000E000B4DF8D2FB2DFC150F2CFDF91CF911F91DE
:1000F0000F910895379885B5836085BD85B7877E54
:10010000806185BF19BC16BE80B7836080BF8E7FBB
:1001100080BF85B7806285BF889585B78F7D85BF95
:100120000895A29A81E687B986EC86B93699FECF02
:10013000C1CFA39A83E687B986EC86B93699FECFFC
:10014000B9DF182FB99AB89A81EA8FBD81E083BFD1
:10015000BB9AC39AA49AE5DFC82F87FD08C024E1A3
:1001600040E065E083E0ABDFC33708F4C3DFE1992B
:10017000FECF8FE38EBBE09ADDB3D095D7FD03C0F1
:1001800082EA94DFD2EAD4FF02C082E001C081E0BB
:1001900040E0E199FECF4EBBE09ACDB3C09519F493
:1001A0004F5F4D33B1F72D2F2470183720F0163ED6
:1001B00048F4D5FD07C010928300D1FFC0E0109233
:1001C000820025C090918200992311F0D6FD1FC0B6
:1001D000163E70F4D0FD0CC0CD3010F0C0E017C05A
:1001E000CC23A1F0222309F4B4C08C13B2C00EC0FA
:1001F000909183009F5F9F7190938300C80FC830D8
:1002000068F7D0FF04C0C63048F701C0C8E0222319
:1002100019F0C11101C0C82FD3FF07C0C83028F49E
:10022000D0FD03C087E08C1BC82F6D2F8C2F20DFE3
:10023000082F10E0F12CDD24DA9498E3C92E8D2FDD
:100240008074B82EAA24A3946CDFE82E82E78E1562
:1002500088F01F5F183078F0C11102C04BDF02C078
:10026000C73010F4C15001C0C6E0402F6D2F8C2F55
:10027000FFDE082F10E0EC2FF0E0EC58FF4F8081FC
:100280008C3FB9F1B0F48A3F39F18B3F09F041C09E
:1002900020E04FEF6AE083E012DF84E1D6DE20E069
:1002A0004FEF64E183E00BDF20E04FEF6AE083E093
:1002B00011C08D3FC1F08E3F61F580E0E82FF0E086
:1002C000E05AFF4F90819E1510F48F5FF7CF24E125
:1002D00040E06AE0F4DE3AC02FEF40E067E082E001
:1002E000EEDE8FEF14C020E04FEF62E084E0E7DE47
:1002F0002EC084E0E82ED9BC16BE85E09DDEC9BCC8
:10030000D6BE81E499DEEA94E110F5CF88E49DDE63
:100310001EC08F3F49F48EE18F1530F4402F6D2FB2
:1003200086E0A6DE082FC6E08C2F90E0FC01EA599B
:10033000FF4F2081FC01EC58FF4F808189BD26BF13
:10034000BB2021F08FEF81DEA092820087DEF39444
:100350007BCFC83010F4C81B5ACFCF5F58CFF8946A
:02036000FFCFCD
:100362008094A0A5AAFF08146EFFFFFFFF00000003
:100372000000000000000007385A89FFFEFFFCFA67
:02038200FDFB81
:00000001FF
